:100000000C9462000C948A000C948A000C948A0070
:100010000C948A000C948A000C948A000C94F601CB
:100020000C948A000C948A000C948A000C948A0028
:100030000C948A000C948A000C948A000C948A0018
:100040000C942C040C948A000C94C4010C949E0112
:100050000C948A000C948A000C948A000C948A00F8
:100060000C948A000C948A000000000024002700F1
:100070002A000000000023002600290000000000E4
:10008000250028002B0004040404040404040202D4
:100090000202020203030303030301020408102007
:1000A0004080010204081020010204081020000012
:1000B0000008000201000003040700000000000027
:1000C00000004A0C11241FBECFEFD8E0DEBFCDBF29
:1000D00011E0A0E0B1E0E6E4FEE102C005900D927F
:1000E000A834B107D9F722E0A8E4B1E001C01D921D
:1000F000A13DB207E1F710E0C2E6D0E004C02197CD
:10010000FE010E94070FC136D107C9F70E9476048D
:100110000C94210F0C940000CF92DF92EF92FF928B
:100120000F931F93CF93DF936C017A018B01C0E093
:10013000D0E0CE15DF0581F0D8016D918D01D6019B
:10014000ED91FC910190F081E02DC6010995892B7C
:1001500011F02196EECF7E01C701DF91CF911F9163
:100160000F91FF90EF90DF90CF900895089580E079
:1001700090E00895FC01538D448D252F30E0842FAD
:1001800090E0821B930B541710F0CF9608950197BF
:100190000895FC01918D828D981761F0828DDF01A9
:1001A000A80FB11D5D968C91928D9F5F9F73928F6A
:1001B00090E008958FEF9FEF0895FC01918D828D5F
:1001C000981731F0828DE80FF11D858D90E008952C
:1001D0008FEF9FEF0895FC01918D228D892F90E084
:1001E000805C9F4F821B91098F739927089588E542
:1001F00091E00E94EB0021E0892B09F420E0822F9E
:100200000895FC01848DDF01A80FB11DA35ABF4FD3
:100210002C91848D90E001968F739927848FA68905
:10022000B7892C93A089B1898C91837080648C9359
:10023000938D848D981306C00288F389E02D808108
:100240008F7D80830895EF92FF920F931F93CF933A
:10025000DF93EC0181E0888F9B8D8C8D981305C016
:10026000E889F989808185FD26C0F62E0B8D10E086
:100270000F5F1F4F0F731127E02E8C8DE8120CC0FB
:100280000FB607FCFACFE889F989808185FFF5CFA1
:10029000CE010E940101F1CF8B8DFE01E80FF11D0F
:1002A000E35AFF4FF0829FB7F8940B8FEA89FB89DE
:1002B000808180620AC09FB7F894EE89FF896083CD
:1002C000E889F98980818370806480839FBF81E0A1
:1002D00090E0DF91CF911F910F91FF90EF900895E3
:1002E000CF93DF93EC01888D8823C9F0EA89FB89DD
:1002F000808185FD05C0A889B9898C9186FD0FC0D4
:100300000FB607FCF5CF808185FFF2CFA889B989A8
:100310008C9185FFEDCFCE010E940101E7CFDF91E7
:10032000CF91089580E090E0892B29F00E94F7009A
:1003300081110C94000008950E941C0F1F920F92CF
:100340000FB60F9211242F933F934F935F936F93A8
:100350007F938F939F93AF93BF93EF93FF9388E522
:1003600091E00E940101FF91EF91BF91AF919F91A8
:100370008F917F916F915F914F913F912F910F904E
:100380000FBE0F901F9018951F920F920FB60F92ED
:1003900011242F938F939F93EF93FF93E091680124
:1003A000F09169018081E0916E01F0916F0182FD11
:1003B00012C09081809171018F5F8F7320917201C3
:1003C000821751F0E0917101F0E0E85AFE4F958FED
:1003D0008093710101C08081FF91EF919F918F9176
:1003E0002F910F900FBE0F901F9018951F920F9294
:1003F0000FB60F9211242F933F934F935F936F93F8
:100400007F938F939F93AF93BF93CF93DF93EF939C
:10041000FF932091F60130E0F901E255FF4F8491FE
:10042000F901E656FF4FD491F901EA57FF4FC49105
:10043000CC2379F081110E94AF03EC2FF0E0EE0F96
:10044000FF1FEE58FF4FA591B491EC91ED2381E091
:1004500009F480E02091FA013091FB012F5F3F4FBA
:100460003093FB012093FA019091F901953618F031
:1004700096E09093F5019091F5019430C9F128F43C
:10048000923069F09330D1F05EC0953009F451C0DC
:10049000963009F058C091E09093C60251C0811186
:1004A00052C02091FA013091FB012436310508F445
:1004B00042C01092C6021092F9011CC0813009F0AE
:1004C00042C0E091F90191E09E0F9093F901F0E0B4
:1004D0002091FA013091FB01EE0FFF1FEB50FE4F10
:1004E000308727831092FB011092FA0194E029C013
:1004F000811117C0E091F90191E09E0F9093F901ED
:10050000F0E02091FA013091FB01EE0FFF1FEB505C
:10051000FE4F308727831092FB011092FA0193E07F
:1005200010C02091FA013091FB012536310558F0B9
:1005300007C0811108C01092FB011092FA0103C09C
:1005400095E09093F5019091F8019923B9F081110C
:100550000AC08091F701882321F08091F70161E0C2
:1005600009C02D9A0BC08091F701882331F080914A
:10057000F70160E00E94D80301C02D98FF91EF9130
:10058000DF91CF91BF91AF919F918F917F916F91AB
:100590005F914F913F912F910F900FBE0F901F9041
:1005A0001895CF92DF92EF92FF92CF93DF93EC01F9
:1005B000072E000C880B990B0E94980D6B017C0193
:1005C00020E030E040E45FE30E94480E20E030E0AD
:1005D00048E452E40E94EE0C0E94600DC617D70753
:1005E000D4F020E030E040EA5FE3C701B6010E94AA
:1005F000480E20E030E048E452E40E94EE0C20E097
:1006000030E040E85FE30E947D0C0E94600D21E035
:100610006C177D070CF420E0822F90E0DF91CF91E2
:10062000FF90EF90DF90CF900895CF93DF930097E6
:1006300079F0FC0101900020E9F73197AF01481BE8
:10064000590BBC0188E591E00E948C00EC0102C0CE
:10065000C0E0D0E042E050E064E471E088E591E081
:100660000E948C008C0F9D1FDF91CF9108958F9277
:100670009F92AF92BF92CF92DF92EF92FF920F9331
:100680001F93CF93DF93FC0120813181E0915401CE
:10069000F09155012E173F070CF04FC0F901EE0FF6
:1006A000FF1FA0915201B0915301EA0FFB1FA080E0
:1006B000B180217033276901F1E0CF26232B19F493
:1006C0002CE93FEF02C024E630E07A018B01EC0117
:1006D0004901840E951EB401C5010E94D102892BE7
:1006E00099F48E0C9F1CB401C5010E94D102892B84
:1006F00071F4B701680D791DC5010E94D102892BE3
:10070000F9F023E030E005C021E030E002C022E053
:1007100030E0F801808191810196821793071CF4E3
:100720009183808308C0F8011182108288819981A9
:10073000019699838883C60105C081E090E002C0DC
:100740008FEF9FEFDF91CF911F910F91FF90EF906F
:10075000DF90CF90BF90AF909F908F90089583309F
:1007600081F028F4813099F08230A1F0089587302B
:10077000A9F08830B9F08430D1F4809180008F7D69
:1007800003C0809180008F7780938000089584B5A6
:100790008F7702C084B58F7D84BD08958091B000AD
:1007A0008F7703C08091B0008F7D8093B000089553
:1007B0001F93CF93DF93282F30E0F901E255FF4FCD
:1007C0008491F901E656FF4FD491F901EA57FF4FA2
:1007D000C491CC23C1F0162F81110E94AF03EC2FDE
:1007E000F0E0EE0FFF1FE458FF4FA591B4919FB7C3
:1007F000F894111104C08C91D095D82302C0EC91CB
:10080000DE2BDC939FBFDF91CF911F9108953FB7FF
:10081000F8948091CD029091CE02A091CF02B09138
:10082000D00226B5A89B05C02F3F19F00196A11D47
:10083000B11D3FBFBA2FA92F982F8827820F911D76
:10084000A11DB11DBC01CD0142E0660F771F881FBD
:10085000991F4A95D1F708951F920F920FB60F92E4
:1008600011242F933F938F939F93AF93BF938091C6
:10087000C9029091CA02A091CB02B091CC023091F2
:10088000C80223E0230F2D3720F40196A11DB11DCE
:1008900005C026E8230F0296A11DB11D2093C802B2
:1008A0008093C9029093CA02A093CB02B093CC026A
:1008B0008091CD029091CE02A091CF02B091D00252
:1008C0000196A11DB11D8093CD029093CE02A093FD
:1008D000CF02B093D002BF91AF919F918F913F9182
:1008E0002F910F900FBE0F901F901895CF93DF930D
:1008F000CDB7DEB72C970FB6F894DEBF0FBECDBFD5
:10090000789484B5826084BD84B5816084BD85B5EA
:10091000826085BD85B5816085BD80916E008160F6
:1009200080936E001092810080918100826080939C
:10093000810080918100816080938100809180009E
:100940008160809380008091B10084608093B100C9
:100950008091B00081608093B00080917A008460C3
:1009600080937A0080917A00826080937A008091EF
:100970007A00816080937A0080917A008068809309
:100980007A001092C100E6EAF0E02491E2E9F0E09A
:100990008491882399F090E0880F991FFC01E85911
:1009A000FF4FA591B491FC01E458FF4F85919491BC
:1009B0008FB7F894EC91E22BEC938FBFE091680134
:1009C000F091690112E01083E0916401F0916501FA
:1009D0001082E0916601F09167018FEC80831092A4
:1009E0007001E0916C01F0916D0186E08083E091EF
:1009F0006A01F0916B01808180618083E0916A01DE
:100A0000F0916B01808188608083E0916A01F091B0
:100A10006B01808180688083E0916A01F0916B01B5
:100A200080818F7D808382E191E00E941503F8949C
:100A30001093B0001093B10084E68093B30010923D
:100A4000B2001093700078941093F5011092F901A0
:100A50008091F60190E0FC01E656FF4F2491FC01E5
:100A6000EA57FF4F84918823C9F090E0880F991FBF
:100A7000FC01E859FF4F45915491FC01E458FF4FA8
:100A8000A591B4919FB7F894FA01808120958223B3
:100A900080838C91E22FE823EC939FBF80E291E06A
:100AA0000E94150310E2212E312C44244A94542C28
:100AB00032012CEF31E030935301209352018091A9
:100AC000F90190E090935501809354018091C60202
:100AD00090E090935701809356018091F501853005
:100AE00009F0DCC08091FE019091FF0188589109C6
:100AF0008D35910588F48091F901843041F480911D
:100B00000002909101028097479708F4F0C080910D
:100B1000F901843408F05BC08091F9018A3108F44E
:100B200026C18091FC019091FD01843F914098F491
:100B3000109251011092500140924C0150924D017F
:100B400060924E0170924F018BE090E090934901CA
:100B5000809348019EC08091FE019091FF0185978E
:100B60004B9708F004C1E2E0F2E082E090E0C12C93
:100B7000D12C7601AC014F5F5F4F2091F90130E03D
:100B8000421753075CF4DF0112972D913C912750D7
:100B900031092730310508F4CEC0CA010197959577
:100BA000879590935101809350010C972CF41092EB
:100BB000510110925001DBC0C0924C01D0924D0106
:100BC000E0924E01F0924F0184E090E03BC08091B2
:100BD000000290910102825491098E9708F09CCFF7
:100BE00080E090E040E050E0BA01FC01EE5FFD4F94
:100BF00020813181295031092930310508F08CCF0D
:100C0000FC01EC5FFD4F20813181275131092231F8
:100C1000310508F083C0440F551F661F771F4160E0
:100C200004968038910509F73092510120925001C5
:100C300040934C0150934D0160934E0170934F01CE
:100C400083E090E0909349018093480180914C01AA
:100C500090914D01A0914E01B0914F01873A38E536
:100C600093073EEFA30731E0B30731F48DE291E043
:100C70000E94150361E00AC08F35904AAE4FB14023
:100C800041F488E391E00E94150360E08CE00E944B
:100C9000D80382E08093F5011092F9010E940704C5
:100CA0006B017C0104E6802E912CA12CB12C0E94BA
:100CB0000704DC01CB018C199D09AE09BF09883EF0
:100CC0009340A105B10598F3F1E08F1A9108A108AE
:100CD000B10828EEC20E23E0D21EE11CF11C8114E3
:100CE0009104A104B10419F70E949201E2CE80910F
:100CF0000202909103020997099708F008CF109219
:100D000051011092500140924C0150924D0160925D
:100D10004E0170924F01E3E0F0E0B7C520813181D0
:100D2000265031092730310508F0F6CE440F551F03
:100D3000661F771F75CF20813181235131092F30F4
:100D4000310548F4CC0CDD1CEE1CFF1C6894C0F887
:100D5000029634960FCF208131812A5031092930F3
:100D6000310528F4CC0CDD1CEE1CFF1CF1CF80916A
:100D7000F9018A3108F467C08091FC019091FD016E
:100D80008032934008F4D4CE8091FE019091FF010F
:100D9000C697869708F057C0809100029091010293
:100DA000C697869708F04FC0E4E0F2E083E090E059
:100DB000C12CD12C7601AC014F5F5F4F2091F9011E
:100DC00030E04217530754F4DF0112972D913C9104
:100DD0002C5031092B303105D0F0CA01019795957F
:100DE000879590935101809350010C972CF41092A9
:100DF00051011092500127C0C0924C01D0924D0178
:100E0000E0924E01F0924F018BE090E01BCF2081E9
:100E10003181255231092B31310570F0208131812A
:100E20002C5031092A30310570F4CC0CDD1CEE1C3D
:100E3000FF1C02963496BFCFCC0CDD1CEE1CFF1CB1
:100E40006894C0F8F6CF8091F901823208F458C056
:100E50008091FE019091FF010697079708F050C01E
:100E6000E2E0F2E082E090E0C12CD12C76019C011E
:100E70002F5F3F4F4091F90150E024173507CCF424
:100E8000DF0112974D915C9111974E5151094731F5
:100E9000510540F5CC0CDD1CEE1CFF1C6894C0F81D
:100EA000408151813496435051094530510530F10C
:100EB000C9010197959587959093510180935001B1
:100EC00040972CF4109251011092500119C0C09219
:100ED0004C01D0924D01E0924E01F0924F018CE016
:100EE00090E0B0CE4D915C914C5051094B30510582
:100EF00038F4CC0CDD1CEE1CFF1CD2CF0296B7CF11
:100F00001C821B8281E090E09A8389838091F901A1
:100F10008D3078F41C821B82E1E0F0E0FA83E983F3
:100F20008091540190915501181619060CF46CC06B
:100F3000C3C049E753E0BE016D5F7F4FCE0101960C
:100F40000E943703892B31F749E753E0BE016D5FFB
:100F50007F4FCE0101960E9437030197D9F649E7EA
:100F600053E0BE016D5F7F4FCE0101960E943703B3
:100F7000892B81F6812C912C540100E010E08091A6
:100F8000F90190E029813A812817390774F549E77A
:100F900053E0BE016D5F7F4FCE0101960E94370383
:100FA0007C0149E753E0BE016D5F7F4FCE010196A2
:100FB0000E943703F1E0EF16F10451F4892B09F098
:100FC000A9CF880C991CAA1CBB1C689480F80AC085
:100FD000EF2809F09FCF019709F09CCF880C991C4E
:100FE000AA1CBB1C0F5F1F4FCACF10935101009367
:100FF000500180924C0190924D01A0924E01B0920E
:101000004F0121E030E054C2E0915201F0915301D0
:1010100082E090E09A8389838281938189974E97B9
:1010200008F04AC0A3E0B0E0BA83A9838481958127
:101030000B970A9708F040C04CEB51E0BE016D5F82
:101040007F4FCE0101960E943703892BA9F54CEB07
:1010500051E0BE016D5F7F4FCE0101960E943703C4
:10106000019751F5812C912C540100E010E0209162
:1010700054013091550189819A81821793070CF0B0
:1010800026C14CEB51E0BE016D5F7F4FCE01019652
:101090000E9437037C010330110509F0E2C04CEBDC
:1010A00051E0BE016D5F7F4FCE0101960E94370374
:1010B000E816F90609F4D5C0E0915201F091530108
:1010C00082819381C6978697E0F4848195814B97BE
:1010D0004597B8F4DF0116967F0126ECE20EF11C6D
:1010E00020E030E040E050E060E070E080E090E040
:1010F0000D911C911197095011090830110508F440
:10110000F5C08091F901893370F18281938189570B
:1011100091098335910508F425C125C0D90112969E
:101120006D917C911397665171096131710508F0D9
:1011300045C1D701C601880F991FAA1FBB1F6C01AB
:101140007D016894C0F84E5F5F4F2C5F3F4F4B337B
:10115000510509F416C1D9016D917C916A5071094C
:1011600069307105D8F28091F901823231F48281BF
:1011700093810A97099708F431C182819381895735
:10118000910983359105D0F48091F9018132B0F055
:1011900084819581CA97899788F49F012A5F3F4F80
:1011A000C12CD12C760143E050E0D9016D917C91A6
:1011B0006A5071096930710508F432C182819381E6
:1011C0008C549109C59778F48091F901843031F4F9
:1011D000848195818097479708F488C18091F901AF
:1011E000843408F06AC18091F901863460F182810B
:1011F00093810C970B9708F4CAC125C0D9011296A8
:101200006D917C9113976E5171096731710508F0EA
:10121000F4C1D701C601880F991FAA1FBB1F6C011B
:101220007D016894C0F84E5F5F4F2C5F3F4F45349F
:10123000510509F4C7C1D9016D917C916C507109B8
:101240006B307105D8F28091F901883508F43CC201
:1012500082819381855891098B35910508F4DDC110
:1012600033C24CEB51E0BE016D5F7F4FCE01019662
:101270000E9437036C010330110569F44CEB51E017
:10128000BE016D5F7F4FCE0101960E943703C816E5
:10129000D90609F011CFE114F10459F4CA94CD280C
:1012A00009F00ACF880C991CAA1CBB1C689480F812
:1012B0000BC0EA94EF2809F0FFCECD2809F0FCCE50
:1012C000880C991CAA1CBB1C0F5F1F4FD0CE10931B
:1012D00051010093500180924C0190924D01A092D7
:1012E0004E01B0924F0182E090E0ACCC12960D918D
:1012F0001C911397015111090D30110528F501E0DA
:101300000E94D00E21601496AE15BF0509F0F0CEF4
:1013100020934C0130934D0140934E0150934F0167
:1013200000E20E94EB0E20934A0130934B01A5E0AE
:10133000B0E0B0934901A0934801E0E3F0E0F093FE
:101340005101E093500182CC12960D911C9113979C
:10135000045011090530110508F0D3CE01E00E94B8
:10136000D00ED1CF84819581CA97899708F0FBCEA2
:101370009F012A5F3F4FC12CD12C760143E050E002
:10138000EACE9F012A583F4FD9012D913C912A5016
:1013900031092930310508F0E6CE2CE130E03093F8
:1013A000510120935001C0924C01D0924D01E09226
:1013B0004E01F0924F018AE090E044CCD9011296A0
:1013C0006D917C911397665071096730710508F033
:1013D000CACECC0CDD1CEE1CFF1CB5CE2091F90151
:1013E000CF01820F911D820F911DDC0112978D910B
:1013F0009C910A97099708F0C0CE10925101109263
:10140000500140924C0150924D0160924E017092F9
:101410004F0126E030E0309349012093480139CC58
:10142000D90112966D917C911397665171096131C2
:10143000710598F112966D917C9113976650710920
:101440006730710508F0BACECC0CDD1CEE1CFF1C19
:101450004E5F5F4F2C5F3F4F4332510509F0A5CEE1
:101460009F012A5B3F4FD9012D913C912A503109B0
:101470002930310508F0A2CEE0E1F0E0F09351010F
:10148000E0935001C0924C01D0924D01E0924E0188
:10149000F0924F0126E030E00BC0D701C601880F63
:1014A000991FAA1FBB1F6C017D016894C0F8D0CFA3
:1014B0003093490120934801C9CB84819581895497
:1014C0009109C39708F08FCE9F012A5F3F4FBF015C
:1014D0006A577F4FC12CD12C7601D9014D915C9177
:1014E0004950510949305105B0F07DCE8681978130
:1014F0000997099708F072CE10925101109250018D
:1015000040924C0150924D0160924E0170924F01F9
:10151000E7E0F0E0BAC1D90112964D915C911397C2
:10152000465151094131510510F5D701C601880FC7
:10153000991FAA1FBB1F6C017D016894C0F82C5F26
:101540003F4F2617370749F630925101209250013C
:10155000C0924C01D0924D01E0924E01F0924F01A9
:10156000E7E0F0E0F0934901E09348016FCBD90147
:1015700012964D915C911397465051094730510591
:1015800008F031CECC0CDD1CEE1CFF1CD8CF8481C2
:1015900095810997099708F056CE868197818C9797
:1015A0004F9708F050CE8085918589974D9708F028
:1015B0004ACE9F01265F3F4FC12CD12C760145E0DA
:1015C00050E039CE9F0126573F4FD9012D913C91D4
:1015D0002C5031092B30310508F035CE30925101B5
:1015E00020925001C0924C01D0924D01E0924E01E8
:1015F000F0924F0188E090E025CBD90112966D91D1
:101600007C911397695071096930710508F01BCE00
:10161000CC0CDD1CEE1CFF1C06CE8481958182540F
:1016200091098E9708F050C08F01045C1F4F8DE127
:1016300090E020E030E04091F90150E04450510941
:1016400084179507FCF4A80142505109DA014D9125
:101650005C914950510948305105B0F5BC016F5FAC
:101660007F4FD8014D915C911197475051094730F8
:10167000510500F14D915C9148515109423151059C
:1016800000F1CB0101979595879590935101809337
:1016900050018A97CCF0C901330FAA0BBB0B809382
:1016A0004C0190934D01A0934E01B0934F0189E0FE
:1016B00090E0C8CA220F331F216002960C5F1F4FB3
:1016C000BACF220F331FF9CF8091F9018032E1F4B4
:1016D0008281938106970697B8F484819581099752
:1016E000099790F49F012A5F3F4FBF01625C7F4FD3
:1016F000C12CD12C7601D9014D915C9146505109F4
:101700004630510508F486C02091540130915501AE
:1017100038872F83263031050CF4BBCA8F010E5F4A
:101720001F4F95ECC92E9DE9D92E9CE1E92E91E839
:10173000F92E83E090E09E838D83D80114966D91FD
:101740007C911597AD90BC9080E090E00E94960D42
:1017500069877A878B879C87B50180E090E00E943B
:10176000960D4B015C012DEC3CEC4CE45FE30E94D8
:10177000480E9B01AC0169857A858B859C850E940A
:10178000E90C87FD19C02DEC3CEC4CE45FE3698566
:101790007A858B859C850E94480E9B01AC01C50112
:1017A000B4010E94E90CE82F880FFF0BEE27FF0F12
:1017B000EE1FFF27319602C0E0E0F0E0A70196019E
:1017C00063E971E080E091E00E94B50E6F01FF0FC8
:1017D000EE08FF08C626D726E826F926ED81FE8109
:1017E0003196FE83ED830E5F1F4F2F813885E21700
:1017F000F30709F0A2CFC0924C01D0924D01E092C4
:101800004E01F0924F0130925101209250018FEF22
:101810009FEF18CAD90112964D915C9113974951C7
:1018200051094331510508F5D701C601880F991FA9
:10183000AA1FBB1F6C017D016894C0F82C5F3F4F4D
:101840002617370709F057CF2EE030E030935101CB
:1018500020935001C0924C01D0924D01E0924E0174
:10186000F0924F018FE090E0EDC9D90112964D91B1
:101870005C911397495051094930510508F044CF04
:10188000CC0CDD1CEE1CFF1CD9CFF0934901E0937A
:101890004801FFC9E8E5F1E01382128288EE93E087
:1018A000A0E0B0E084839583A683B78384E091E0D1
:1018B0009183808385EC90E09587848784EC90E029
:1018C0009787868780EC90E0918B808B81EC90E00D
:1018D000938B828B82EC90E0958B848B86EC90E0EE
:1018E000978B868B118E128E138E148EE5EFF1E09E
:1018F0008BE08183138208955058BB27AA270E944A
:10190000940C0C940E0E0E94000E38F00E94070EEC
:1019100020F039F49F3F19F426F40C94FD0D0EF4D9
:10192000E095E7FB0C94F70DE92F0E941F0E58F38A
:10193000BA17620773078407950720F079F4A6F5B4
:101940000C94410E0EF4E0950B2EBA2FA02D0B0136
:10195000B90190010C01CA01A0011124FF27591BF4
:1019600099F0593F50F4503E68F11A16F040A22FFA
:10197000232F342F4427585FF3CF4695379527956B
:10198000A795F0405395C9F77EF41F16BA0B620B6A
:10199000730B840BBAF09150A1F0FF0FBB1F661FB1
:1019A000771F881FC2F70EC0BA0F621F731F841FF4
:1019B00048F4879577956795B795F7959E3F08F01A
:1019C000B0CF9395880F08F09927EE0F97958795DC
:1019D00008950E94D30D08F481E008950E94020D3D
:1019E0000C940E0E0E94070E58F00E94000E40F05C
:1019F00029F45F3F29F00C94F70D51110C94420E1D
:101A00000C94FD0D0E941F0E68F39923B1F355232A
:101A100091F3951B550BBB27AA2762177307840701
:101A200038F09F5F5F4F220F331F441FAA1FA9F397
:101A300035D00E2E3AF0E0E832D091505040E69585
:101A4000001CCAF72BD0FE2F29D0660F771F881FE6
:101A5000BB1F261737074807AB07B0E809F0BB0BD9
:101A6000802DBF01FF2793585F4F3AF09E3F5105ED
:101A700078F00C94F70D0C94420E5F3FE4F3983E1F
:101A8000D4F3869577956795B795F7959F5FC9F7D6
:101A9000880F911D9695879597F90895E1E0660F57
:101AA000771F881FBB1F621773078407BA0720F0D0
:101AB000621B730B840BBA0BEE1F88F7E095089539
:101AC0000E94670D6894B1110C94420E08950E9413
:101AD000270E88F09F5798F0B92F9927B751B0F08B
:101AE000E1F0660F771F881F991F1AF0BA95C9F7A2
:101AF00014C0B13091F00E94410EB1E008950C94F1
:101B0000410E672F782F8827B85F39F0B93FCCF3A3
:101B1000869577956795B395D9F73EF4909580951E
:101B2000709561957F4F8F4F9F4F0895E89409C03E
:101B300097FB3EF490958095709561957F4F8F4F00
:101B40009F4F9923A9F0F92F96E9BB279395F69516
:101B5000879577956795B795F111F8CFFAF4BB0F94
:101B600011F460FF1BC06F5F7F4F8F4F9F4F16C0F8
:101B7000882311F096E911C0772321F09EE8872F82
:101B8000762F05C0662371F096E8862F70E060E03E
:101B90002AF09A95660F771F881FDAF7880F9695B7
:101BA000879597F90895990F0008550FAA0BE0E85B
:101BB000FEEF16161706E807F907C0F0121613060F
:101BC000E407F50798F0621B730B840B950B39F44F
:101BD0000A2661F0232B242B252B21F408950A26B5
:101BE00009F4A140A6958FEF811D811D089597F9F5
:101BF0009F6780E870E060E008959FEF80EC0895B3
:101C000000240A94161617061806090608950024DB
:101C10000A9412161306140605060895092E039455
:101C2000000C11F4882352F0BB0F40F4BF2B11F4C9
:101C300060FF04C06F5F7F4F8F4F9F4F089557FD28
:101C40009058440F551F59F05F3F71F04795880F2A
:101C500097FB991F61F09F3F79F0879508951216C1
:101C600013061406551FF2CF4695F1DF08C016166D
:101C700017061806991FF1CF86957105610508941E
:101C80000895E894BB2766277727CB0197F9089535
:101C90000E945B0E0C940E0E0E94000E38F00E9403
:101CA000070E20F0952311F00C94F70D0C94FD0D08
:101CB00011240C94420E0E941F0E70F3959FC1F3E5
:101CC000950F50E0551F629FF001729FBB27F00DEA
:101CD000B11D639FAA27F00DB11DAA1F649F66273F
:101CE000B00DA11D661F829F2227B00DA11D621F8E
:101CF000739FB00DA11D621F839FA00D611D221F48
:101D0000749F3327A00D611D231F849F600D211D2B
:101D1000822F762F6A2F11249F5750409AF0F1F0AE
:101D200088234AF0EE0FFF1FBB1F661F771F881F17
:101D300091505040A9F79E3F510580F00C94F70D4B
:101D40000C94420E5F3FE4F3983ED4F3869577956A
:101D50006795B795F795E7959F5FC1F7FE2B880FBD
:101D6000911D9695879597F90895DB018F939F9321
:101D70000E94C50EBF91AF91A29F800D911DA39FA0
:101D8000900DB29F900D112408950E940D0FA59FF4
:101D9000900DB49F900DA49F800D911D1124089566
:101DA0000F93083090F0982F872F762F652F542FA0
:101DB000432F322F22270850F4CF220F331F441F06
:101DC000551F661F771F881F991F0A95B2F70F913D
:101DD000089597FB10F8169400080F93083098F0B8
:101DE0000850232F342F452F562F672F782F892FF8
:101DF000902DF4CF0594979587957795679557958E
:101E00004795379527950A95AAF70F910895EE0FF4
:101E1000FF1F0590F491E02D0994A29FB001B39F9C
:101E2000C001A39F700D811D1124911DB29F700DE3
:101E3000811D1124911D089581E090E0F8940C9487
:061E4000210FF894FFCF12
:101E46000000000023018C00BA007001EB00C900FD
:101E5600DD00456E61626C696E67204952696E00ED
:101E6600456E61626C6564204952696E00747572D4
:101E76006E696E67206F6E007475726E696E67208C
:081E86006F6666000D0A000002
:00000001FF
